:1000000000308A000428000003081F398300613093
:1000100083168F0090010F088312A101A0018C307C
:10002000A5000A30A600FF30AA00831603170908AE
:10003000C039890003131F129F1200300317880074
:100040008312870188018901831318300313A200EA
:100050000130A3002302F800780DF700F70DF70D2B
:10006000F830F705770805389200220883169200C9
:1000700083122A112A0883168700831207110C3075
:10008000970083169B019C0101309D00031709080E
:10009000C0391F38890003131F129F12FF30031746
:1000A0008800831203131F179F1783169F1783124D
:1000B0001F140030F8001F08C33978049F00213056
:1000C000F700F70B61289F149F1864281E08F90099
:1000D00083161E08F80079088312A1007808A00092
:1000E0002108F9002008F800F90CF80CF90CF80CBC
:1000F000F90C78089500F90C790C3039F7001708DD
:0A010000CF397704970059286300F7
:04400E00E42FFF3F5D
:00000001FF
;PIC16F887
;CRC=2D2A  CREATED="11-Aug-20 18:05"
