:1000000002308A00162A00008E30F7003E08F80001
:100010003D08F900FA01F808031D18287908F800CE
:10002000F9010830F702F808031D1828F701202805
:100030000310F81B1F28F90DF80DF7031828F81303
:1000400008003D0803199128C500410803199128AB
:10005000C507031832287F30C502031C91280319F5
:10006000912836288130C507031891284508F700E4
:10007000F801F901FA013E08C900C9173F08C80094
:100080004008C7001830C500C601471C5F28440857
:10009000FA07031C5128F90A031D5128F80A03190D
:1000A000C6174308F907031C5828F80A0319C6178E
:1000B0004208BF00BF173F08F8070318C617C60D50
:1000C000F80CF90CFA0CC90CC80CC70C0310C50BC2
:1000D00044280130F70703189128F81B7628C90D2A
:1000E000FA0DF90DF80DF70303199128C91F872898
:1000F000FA0A031D8728F90A031D8728F80A031D39
:100100008728F80CF90CFA0CF70A031991283E0815
:10011000C6004208C606C61F8F28F8179528F81390
:100120009528F701F801F901FA0108004208C90011
:100130004608C906C91FA12803110310C21B0314D6
:10014000D4284208C9004508CA004108CA02031958
:10015000AF28C91FD4280308013A8300D4284608D1
:10016000CA004208CA020319BB28C91FD4280308C1
:10017000013A8300D4284708CA004308CA02031979
:10018000C728C91FD4280308013A8300D428480887
:10019000CA004408CA020319D328C91FD428030877
:1001A000013A8300D4280310080080308318C20667
:1001B000C701C8013E08C6004208C6063D0803192B
:1001C000C529C500F70041080319CE29C502031946
:1001D0006A29031C28294208CB00CB174308CA0010
:1001E0004408C900C8010310CB0CCA0CC90CC80CC8
:1001F000C50BF228C61FFF284714E22947104510F7
:100200004716403084008313F7294712C61B122972
:10021000451C1D29CB0CCA0CC90CC80CF70A0319C4
:10022000DD291D29CB1B20290310C80DC90DCA0DBE
:10023000CB0DF7030319DD29122947178A29471324
:100240003E08C600C61F2629CB17D629CB13D629B0
:100250004108C500F7003D08C5023E08CB00CB179A
:100260003F08CA004008C900C8010310CB0CCA0CE3
:10027000C90CC80CC50B3429C61F4129C714E22973
:10028000C7104510C716443084008313F729C712DE
:10029000C61B5429451C5F29CB0CCA0CC90CC80CC1
:1002A000F70A0319DD295F29CB1B62290310C80D4A
:1002B000C90DCA0DCB0DF7030319DD295429C71742
:1002C0008A29C7134208C600C61F6829CB17D6293A
:1002D000CB13D6294208CB00CB174308CA004408E9
:1002E000C900C61F7729CB134715E2294711C8015A
:1002F0004510403084008313F729C61BA0293E080F
:10030000C600451C8A29CB0CCA0CC90CC80CF70ABC
:100310000319DD29C81F9B29C90A031D9B29CA0A85
:10032000031D9B29CB0A031D9B29CB0CCA0CC90CAE
:10033000F70A0319DD29471B1F29C71B6129BF299C
:100340008030CB06CB1FA829E2294208C600B52978
:100350003E08C600CB08031DB529CA08031DB529F0
:10036000C908031DB529F701D629CB1BBF290310E6
:10037000C80DC90DCA0DCB0DF70BB529DD29C61F58
:10038000C329CB17D629CB13D6294108F700420839
:10039000CB004308CA004408C900D6293D08F7002D
:1003A0003E08CB003F08CA004008C9004B08F800CF
:1003B0004A08F9004908FA00152AF701F801F9017D
:1003C000FA01152AC801C909CA09CB09C809C80A0E
:1003D000031DF029C90A031DF029CA0A0319CB0A13
:1003E0004718FE28C718402947197629A52900086B
:1003F000C907031C012ACA0A031D012ACB0A0319D3
:10040000451484030008CA07031C092ACB0A0319F0
:10041000451484030008801F803ACB070318451455
:10042000471A0529C71A47297D29080003081F39DB
:100430008300613083168F0090010F088312A101A1
:100440001430A0000930A2000130A300AB01AA01C2
:10045000A901A801B301B201B101B001FF30BC0094
:10046000831603170908C039890003131F129F124E
:1004700000300317880083128701880189018313E4
:100480000330831603138500013083122302F80022
:10049000780DF700F70DF70DF830F70577080538F8
:1004A000920022088316920083123C113C088316A6
:1004B0008700831207110C30970083169B019C0163
:1004C00001309D0003170908C0391F388900031344
:1004D0001F129F12FF3003178800831203131F1788
:1004E0009F1783169F1783121F142108F9002008F5
:1004F000F800F90CF80CF90CF80CF90C78089500D8
:10050000F90C790C3039F7001708CF3977049700C8
:100510000030F8001F08C33978049F001030F7003E
:10052000F70B902A00009F149F18942A1E08F900C8
:1005300083161E08F8007908FA001E088312BD0011
:100540007908BE0004207A08A7007908A600780878
:10055000A5007708A4002708C0002608BF002508CA
:10056000BE002408BD00C401C3012030C2007730A2
:10057000C10021207A08A7007908A6007808A50004
:100580007708A4000430F8001F08C33978049F00DE
:100590001030F700F70BCA2A00009F149F18CE2ACC
:1005A0001E08F90083161E08F8007908FA001E08D4
:1005B0008312BD007908BE0004207A08AF007908D4
:1005C000AE007808AD007708AC002F08C0002E08F8
:1005D000BF002D08BE002C08BD00C401C30120309F
:1005E000C2007730C10021207A08AF007908AE0040
:1005F0007808AD007708AC002708C0002608BF00C7
:100600002508BE002408BD002F08C4002E08C30022
:100610002D08C2002C08C10021207A08B7007908F3
:10062000B6007808B5007708B4002B08C0002A0887
:10063000BF002908BE002808BD003308C4003208E6
:10064000C3003108C2003008C10021207A08BB0075
:100650007908BA007808B9007708B8003708C400EC
:100660003608C3003508C2003408C1003B08C80082
:100670003A08C7003908C6003808C5009620031D8F
:10068000432BE62BD52B83143708C0003608BF0058
:100690003508BE003408BD003B08C4003A08C3005A
:1006A0003908C2003808C100D5207A08C00079088E
:1006B000BF007808BE007708BD00C401C301C201B5
:1006C000C1014008C8003F08C7003E08C6003D08F9
:1006D000C5009620031CA12B83142708C000260800
:1006E000BF002508BE002408BD002B08C4002A084E
:1006F000C3002908C2002808C100D5207A08C0001C
:100700007908BF007808BE007708BD00C401C301A6
:10071000C201C1014008C8003F08C7003E08C6002A
:100720003D08C5009620031C9A2B0130A007031832
:10073000A10AA02B0130A0020030031C0130A1024D
:10074000D52B83142708C0002608BF002508BE004B
:100750002408BD002B08C4002A08C3002908C200D1
:100760002808C100D5207A08C0007908BF007808A1
:10077000BE007708BD00C401C301C201C101400829
:10078000C8003F08C7003E08C6003D08C5009620C7
:10079000031CD12B0130A0020030031C0130A10248
:1007A000D52B0130A0070318A10A2708AB002608A3
:1007B000AA002508A9002408A8002F08B3002E08C5
:0E07C000B2002D08B1002C08B000752A6300AD
:04400E00E42FFF3F5D
:00000001FF
;PIC16F887
;CRC=7FEE  CREATED="12-Aug-20 19:08"
