:1000000000308A0029280000F701F80132080310A7
:100010003318F707F70CF80CB318F707F70CF80CC0
:100020003319F707F70CF80CB319F707F70CF80CAE
:10003000331AF707F70CF80CB31AF707F70CF80C9C
:10004000331BF707F70CF80CB31BF707F70CF80C8A
:10005000080003081F398300613083168F00900168
:100060000F080A308312A0000130A1008C30A300D9
:100070000A30A5001430A800FF30B1008316031722
:100080000908C039890003131F129F12003003179B
:100090008800831287018801890183130330831646
:1000A00003138500013083122102F800780DF70058
:1000B000F70DF70DF830F70577080538920020089E
:1000C0008316920083123111310883168700831240
:1000D00007110C30970083169B019C0101309D0095
:1000E00003170908C0391F38890003131F129F1214
:1000F000FF3003178800831203131F179F178316FF
:100100009F1783121F140030F8001F08C3397804AA
:100110009F001030F700F70B8B2800009F149F18EA
:100120008F2883161E088312A2000430F8001F08CF
:10013000C33978049F001030F700F70B9D280000AA
:100140009F149F18A12883161E088312A40022085A
:10015000B2002408B30004207808A6002308B200E7
:100160002508B30004207808A70027082602031DED
:10017000BB28C928C828270826020319C428230831
:100180002202031DC328C82823082202031DC828F1
:04019000832863005D
:04400E00E42FFF3F5D
:00000001FF
;PIC16F887
;CRC=CEEB  CREATED="11-Aug-20 23:53"
