:1000000004308A00252C00000C0045362022753A69
:100010007910C33C63366510E5393A0044103D1051
:10002000A53400000C004530840083130008031938
:1000300027280130F800F701F70B1C28F80B1B28C4
:100040004A30F700F70B22282528800B19280800D2
:100050004C0EF039F7000F300805770488000000D7
:1000600008143228081008000808F700080E0F3995
:10007000F8000800831608108810081183128810F1
:100080000F3083160805F038880083120815000029
:100090000814000034207808CC0008100000081470
:1000A000000034207808CB0008100F3083160805B4
:1000B000880083124C0EF700F030F70577084B04E8
:1000C000F8007808CB00CB1B4028491C8810491841
:1000D000881400000811000008104A0ECB000F30F1
:1000E000CB054B08CC0028204A080F39CB00CC00A8
:1000F000282008002830BF000C30C0000130C100AB
:100100000630C2000810881008110F308316080549
:1001100088000810881008110F308312C5001320C2
:100120000130BE003E08033C031C9E280330CC0077
:1001300028200530C5001320BE0A92280230CC00CA
:1001400028200530C5001320BE013E08033C031CD7
:10015000B5283F303E07840083130008C300C9015F
:100160004308CA003A20BE0AA5288A110A12862C22
:10017000460BBB28BE284030C700BF28C70101304E
:100180004502C70747088038C800C9014808CA00A7
:100190003A2008004408073A0319D8280B3A0319F3
:1001A000DD28063A0319E528023A0319EB28F0285E
:1001B0000130C500C600B820F528C9010130CA00C9
:1001C0003A200230C5001320F5280130C500023066
:1001D000C600B820F528C9011030CA003A20F52819
:1001E0000130C9004408CA003A2008000B08BE00CC
:1001F0008B13831603178C170C1400000000831256
:100200000313BE1B8B1703170C087F3903194A29E8
:100210000313BE0003170D080313BF0003170F08D5
:100220000313C0003E08C400CA203F0803178D0016
:100230000313400803178F0003130B08C1008B132F
:10024000831603178C170C1400000000831203138D
:10025000C11B8B1703170C0D0E0D7F3903194A298B
:100260000313BE0003170D080313BF0003170F0885
:100270000313C0003E08C400CA203F0803178D00C6
:100280000313400803178F008D0A03198F0A031305
:10029000F6280317031308008E30F7003F08F80014
:1002A0003E08F900FA01F808031D60297908F800F2
:1002B000F9010830F702F808031D6029F7016829E1
:1002C0000310F81B6729F90DF80DF7036029F813DF
:1002D00008003E080319D929C60042080319D92984
:1002E000C60703187A297F30C602031CD9290319CF
:1002F000D9297E298130C6070318D9294608F70075
:10030000F801F901FA013F08CA00CA174008C900FC
:100310004108C8001830C600C701481CA729450875
:10032000FA07031C9929F90A031D9929F80A0319E8
:10033000C7174408F907031CA029F80A0319C717AF
:100340004308C000C0174008F8070318C717C70DB7
:10035000F80CF90CFA0CCA0CC90CC80C0310C60B2B
:100360008C290130F7070318D929F81BBE29CA0DBB
:10037000FA0DF90DF80DF7030319D929CA1FCF2972
:10038000FA0A031DCF29F90A031DCF29F80A031D14
:10039000CF29F80CF90CFA0CF70A0319D9293F08F0
:1003A000C7004308C706C71FD729F817DD29F81368
:1003B000DD29F701F801F901FA0108004308CA0034
:1003C0004708CA06CA1FE92903110310C31B0314F7
:1003D0001C2A4308CA004608CB004208CB02031976
:1003E000F729CA1F1C2A0308013A83001C2A470860
:1003F000CB004308CB020319032ACA1F1C2A030897
:10040000013A83001C2A4808CB004408CB02031998
:100410000F2ACA1F1C2A0308013A83001C2A490814
:10042000CB004508CB0203191B2ACA1F1C2A03084C
:10043000013A83001C2A0310080080308318C30689
:10044000C801C9013F08C7004308C7063E08031991
:100450000D2BC600F70042080319162BC60203191C
:10046000B22A031C702A4308CC00CC174408CB00E6
:100470004508CA00C9010310CC0CCB0CCA0CC90C2E
:10048000C60B3A2AC71F472A48142A2B4810461081
:1004900048164130840083133F2B4812C71B5A2A49
:1004A000461C652ACC0CCB0CCA0CC90CF70A0319E4
:1004B000252B652ACC1B682A0310C90DCA0DCB0D4C
:1004C000CC0DF7030319252B5A2A4817D22A4813B3
:1004D0003F08C700C71F6E2ACC171E2BCC131E2B3C
:1004E0004208C600F7003E08C6023F08CC00CC1701
:1004F0004008CB004108CA00C9010310CC0CCB0C4A
:10050000CA0CC90CC60B7C2AC71F892AC8142A2BFF
:10051000C8104610C8164530840083133F2BC812FC
:10052000C71B9C2A461CA72ACC0CCB0CCA0CC90C96
:10053000F70A0319252BA72ACC1BAA2A0310C90DD9
:10054000CA0DCB0DCC0DF7030319252B9C2AC81718
:10055000D22AC8134308C700C71FB02ACC171E2BC6
:10056000CC131E2B4308CC00CC174408CB00450805
:10057000CA00C71FBF2ACC1348152A2B4811C9012E
:1005800046104130840083133F2BC71BE82A3F08E5
:10059000C700461CD22ACC0CCB0CCA0CC90CF70ADB
:1005A0000319252BC91FE32ACA0A031DE32ACB0A14
:1005B000031DE32ACC0A031DE32ACC0CCB0CCA0C86
:1005C000F70A0319252B481B672AC81BA92A072BE2
:1005D0008030CC06CC1FF02A2A2B4308C700FD2A06
:1005E0003F08C700CC08031DFD2ACB08031DFD2AC8
:1005F000CA08031DFD2AF7011E2BCC1B072B031075
:10060000C90DCA0DCB0DCC0DF70BFD2A252BC71F2D
:100610000B2BCC171E2BCC131E2B4208F7004308C4
:10062000CC004408CB004508CA001E2B3E08F7004A
:100630003F08CC004008CB004108CA004C08F80035
:100640004B08F9004A08FA005D2BF701F801F9019F
:10065000FA015D2BC901CA09CB09CC09C909C90A2C
:10066000031D382BCA0A031D382BCB0A0319CC0AE9
:100670004818462AC818882A4819BE2AED2A0008B0
:10068000CA07031C492BCB0A031D492BCC0A0319AB
:10069000461484030008CB07031C512BCC0A031912
:1006A000461484030008801F803ACC0703184614C0
:1006B000481A4D2AC81A8F2AC52A08000B08BF00FD
:1006C0008B13831603178C170C1400000000831281
:1006D0000313BF1B8B170318952B03170C087F39C7
:1006E0000313BF0003170D080313C00003170F08FF
:1006F0000313C1003F08C400CA20400803178D003F
:100700000313410803178F0003130B08C2008B1358
:10071000831603178C170C140000000083120313B8
:10072000C21B8B17BE0B952BB42B03170C0D0E0D94
:100730007F390313BF0003170D080313C00003170D
:100740000F080313C1003F08C400CA204008031764
:100750008D000313410803178F008D0A03198F0AB8
:1007600003100313BE0B5E2B8A110A12F52D4508E8
:10077000F80144020318BF2B4408F700CB2BF70104
:100780000830C600C40DF70D450877020318F700BE
:10079000F80DC60BC22B080020303F1E3030C000C1
:1007A0003E08F700BE1FDC2BF709F70A7708BE00EA
:1007B0002D30C000BF173F143E08C4006430C50090
:1007C000B7237708BE0030307807C1003E08C40068
:1007D0000A30C500B72330307707C30030307807C0
:1007E000C2004008F700303041020319FB2BBF1450
:1007F000BF1B3F150F2C4008C1002030C000303017
:1008000042020319072C3F14BF1BBF140F2C031DFA
:100810003F14031D0F2C4108C2002030C1003F19B6
:10082000162CBF18192C3F181C2C1F2C4008C40074
:10083000CA204108C400CA204208C400CA20430894
:10084000C400CA208A110A12FA2D03081F39830036
:10085000613083168F0090010F088312AA01A9014D
:10086000A801A701B201B101B001AF01FF30BB0087
:10087000BD01BC01831603170908C03989000313A1
:100880001F129F120030031788008312870188010E
:100890008901831331300313A0000130A1006430BB
:1008A000A20001302102F800780DF700F70DF70DD6
:1008B000F830F70577080538920020088316920073
:1008C00083123B113B0883168700831207110C30FB
:1008D000970083169B019C0101309D0003170908B6
:1008E000C0391F38890003131F129F12FF300317EE
:1008F0008800831203131F179F1783169F178312F5
:100900001F1403308316850083127A2804300317DE
:100910008D0000308F000313F6200030F8001F0810
:10092000C33978049F001030F700F70B952C0000B6
:100930009F149F18992C1E08F90083161E08F800B2
:100940007908FA001E088312BE007908BF004C2106
:100950007A08A6007908A5007808A4007708A30003
:100960002608C1002508C0002408BF002308BE00D7
:10097000C501C4012030C3007730C20069217A0864
:10098000A6007908A5007808A4007708A300043021
:10099000F8001F08C33978049F001030F700F70BE8
:1009A000CF2C00009F149F18D32C1E08F90083162B
:1009B0001E08F8007908FA001E088312BE007908A4
:1009C000BF004C217A08AE007908AD007808AC0071
:1009D0007708AB002E08C1002D08C0002C08BF000E
:1009E0002B08BE00C501C4012030C3007730C2000F
:1009F00069217A08AE007908AD007808AC00770864
:100A0000AB002608C1002508C0002408BF00230849
:100A1000BE002E08C5002D08C4002C08C3002B08FA
:100A2000C20069217A08B6007908B5007808B400D8
:100A30007708B3002A08C1002908C0002808BF00B1
:100A40002708BE003208C5003108C4003008C300C2
:100A50002F08C20069217A08BA007908B90078081D
:100A6000B8007708B7003608C5003508C400340858
:100A7000C3003308C2003A08C9003908C800380862
:100A8000C7003708C600DE210319CC2D83143608B1
:100A9000C1003508C0003408BF003308BE003A0862
:100AA000C5003908C4003808C3003708C2001D2239
:100AB0007A08C1007908C0007808BF007708BE0036
:100AC000C501C401C301C2014108C9004008C800F2
:100AD0003F08C7003E08C600DE21031C9E2D83147C
:100AE0002608C1002508C0002408BF002308BE0056
:100AF0002A08C5002908C4002808C3002708C20026
:100B00001D227A08C1007908C0007808BF00770864
:100B1000BE00C501C401C301C2014108C9004008AB
:100B2000C8003F08C7003E08C600DE21031C9B2DFD
:100B30000130A2079D2D0130A202CC2D831426087E
:100B4000C1002508C0002408BF002308BE002A08F1
:100B5000C5002908C4002808C3002708C2001D22B8
:100B60007A08C1007908C0007808BF007708BE0085
:100B7000C501C401C301C2014108C9004008C80041
:100B80003F08C7003E08C600DE21031CCA2D013005
:100B9000A202CC2D0130A2072608AA002508A90030
:100BA0002408A8002308A7002E08B2002D08B100D1
:100BB0002C08B0002B08AF000130C500C600B820DB
:100BC000053003178D0000308F000313F62002302C
:100BD000C500C600B8200E3003178D0000308F000E
:100BE000031004300313BE005E2B2208BE00183031
:100BF000BF00CC2B2130F700F70BFC2D1230031770
:0E0C00008D0000308F000313F6208D2C630052
:04400E00E42FFF3F5D
:00000001FF
;PIC16F887
;CRC=66DF  CREATED="12-Aug-20 20:34"
