:1000000000308A001B28000026308400831300087B
:10001000031918280130F800F701F70B0D28F80B29
:100020000C284A30F700F70B13281628800B0A28F3
:100030008A110A12852803081F398300613083164C
:100040008F0090010F088312A1011430A000FF302F
:10005000A400831603170908C039890003131F126F
:100060009F120030031788008312870188018901DD
:10007000831309300313A2000130A3002302F80008
:10008000780DF700F70DF70DF830F705770805380C
:1000900092002208831692008312241124088316EA
:1000A0008700831207110C30970083169B019C0177
:1000B00001309D0003170908C0391F388900031358
:1000C0001F129F12FF3003178800831203131F179C
:1000D0009F1783169F1783121F142108F900200809
:1000E000F800F90CF80CF90CF80CF90C78089500EC
:1000F000F90C790C3039F7001708CF3977049700DD
:100100000430A500FA30A6000428A50B82286D282B
:0201100063008A
:04400E00E42FFF3F5D
:00000001FF
;PIC16F887
;CRC=D26E  CREATED="13-Aug-20 11:42"
