:1000000002308A00162A00008E30F7003E08F80001
:100010003D08F900FA01F808031D18287908F800CE
:10002000F9010830F702F808031D1828F701202805
:100030000310F81B1F28F90DF80DF7031828F81303
:1000400008003D0803199128C500410803199128AB
:10005000C507031832287F30C502031C91280319F5
:10006000912836288130C507031891284508F700E4
:10007000F801F901FA013E08C900C9173F08C80094
:100080004008C7001830C500C601471C5F28440857
:10009000FA07031C5128F90A031D5128F80A03190D
:1000A000C6174308F907031C5828F80A0319C6178E
:1000B0004208BF00BF173F08F8070318C617C60D50
:1000C000F80CF90CFA0CC90CC80CC70C0310C50BC2
:1000D00044280130F70703189128F81B7628C90D2A
:1000E000FA0DF90DF80DF70303199128C91F872898
:1000F000FA0A031D8728F90A031D8728F80A031D39
:100100008728F80CF90CFA0CF70A031991283E0815
:10011000C6004208C606C61F8F28F8179528F81390
:100120009528F701F801F901FA01080080308318D9
:10013000C206C701C8013E08C6004208C6063D08FF
:1001400003198629C500F700410803198F29C50244
:1001500003192B29031CE9284208CB00CB174308BD
:10016000CA004408C900C8010310CB0CCA0CC90C52
:10017000C80CC50BB328C61FC0284714A3294710B5
:1001800045104716403084008313B8294712C61B18
:10019000D328451CDE28CB0CCA0CC90CC80CF70AA6
:1001A00003199E29DE28CB1BE1280310C80DC90DB9
:1001B000CA0DCB0DF70303199E29D32847174B29E6
:1001C00047133E08C600C61FE728CB179729CB1355
:1001D00097294108C500F7003D08C5023E08CB003D
:1001E000CB173F08CA004008C900C8010310CB0C58
:1001F000CA0CC90CC80CC50BF528C61F0229C714A8
:10020000A329C7104510C716443084008313B829AA
:10021000C712C61B1529451C2029CB0CCA0CC90CBA
:10022000C80CF70A03199E292029CB1B2329031088
:10023000C80DC90DCA0DCB0DF70303199E29152949
:10024000C7174B29C7134208C600C61F2929CB1759
:100250009729CB1397294208CB00CB174308CA0034
:100260004408C900C61F3829CB134715A3294711D5
:10027000C8014510403084008313B829C61B61298A
:100280003E08C600451C4B29CB0CCA0CC90CC80C37
:10029000F70A03199E29C81F5C29C90A031D5C2996
:1002A000CA0A031D5C29CB0A031D5C29CB0CCA0CAE
:1002B000C90CF70A03199E29471BE028C71B2229EE
:1002C00080298030CB06CB1F6929A3294208C600AC
:1002D00076293E08C600CB08031D7629CA08031DEF
:1002E0007629C908031D7629F7019729CB1B802998
:1002F0000310C80DC90DCA0DCB0DF70B76299E2929
:10030000C61F8429CB179729CB1397294108F700DB
:100310004208CB004308CA004408C90097293D0899
:10032000F7003E08CB003F08CA004008C9004B0850
:10033000F8004A08F9004908FA00D629F701F8013F
:10034000F901FA01D629C801C909CA09CB09C809A6
:10035000C80A031DB129C90A031DB129CA0A031914
:10036000CB0A4718BF28C71801294719372966291A
:100370000008C907031CC229CA0A031DC229CB0AE7
:100380000319451484030008CA07031CCA29CB0AB1
:100390000319451484030008801F803ACB07031813
:1003A0004514471AC628C71A08293E2908004208DA
:1003B000C9004608C906C91FE22903110310C21B60
:1003C0000314152A4208C9004508CA004108CA0298
:1003D0000319F029C91F152A0308013A8300152AB9
:1003E0004608CA004208CA020319FC29C91F152A77
:1003F0000308013A8300152A4708CA004308CA02C5
:100400000319082AC91F152A0308013A8300152A6F
:100410004808CA004408CA020319142AC91F152A29
:100420000308013A8300152A0310080003081F3946
:100430008300613083168F0090010F088312A101A1
:100440001430A000AB01AA01A901A801B301B201B7
:10045000B101B001FF30BC00831603170908C03991
:10046000890003131F129F120030031788008312A4
:10047000870188018901831309300313A200013029
:10048000A3002302F800780DF700F70DF70DF83000
:10049000F705770805389200220883169200831228
:1004A0003C113C0883168700831207110C3097001B
:1004B00083169B019C0101309D0003170908C03978
:1004C0001F38890003131F129F12FF300317880083
:1004D000831203131F179F1783169F1783121F146E
:1004E00003308316850083122108F9002008F800E4
:1004F000F90CF80CF90CF80CF90C78089500F90CCB
:10050000790C3039F7001708CF397704970000309D
:10051000F8001F08C33978049F000630F700F70B76
:100520008F2A00009F149F18932A1E08F900831633
:100530001E08F8007908FA001E088312BD00790829
:10054000BE0004207A08A7007908A6007808A50054
:100550007708A4002708C0002608BF002508BE00B1
:100560002408BD00C401C3012030C2007730C1009F
:1005700021207A08A7007908A6007808A500770846
:10058000A4000430F8001F08C33978049F00063027
:10059000F700F70BC92A00009F149F18CD2A1E08E8
:1005A000F90083161E08F8007908FA001E08831265
:1005B000BD007908BE0004207A08AF007908AE00BB
:1005C0007808AD007708AC002F08C0002E08BF00E7
:1005D0002D08BE002C08BD00C401C3012030C2009C
:1005E0007730C10021207A08AF007908AE00780882
:1005F000AD007708AC002708C0002608BF0025081A
:10060000BE002408BD002F08C4002E08C3002D081A
:10061000C2002C08C10021207A08B7007908B60072
:100620007808B5007708B4002B08C0002A08BF007E
:100630002908BE002808BD003308C4003208C300E2
:100640003108C2003008C10021207A08BB007908B7
:10065000BA007808B9007708B80083143708C000DA
:100660003608BF003508BE003408BD003B08C40092
:100670003A08C3003908C2003808C10096207A0839
:10068000C0007908BF007808BE007708BD004008A8
:10069000C4003F08C3003E08C2003D08C100C801B5
:1006A000C701C601C501D7210319162C83143708C9
:1006B000C0003608BF003508BE003408BD003B0846
:1006C000C4003A08C3003908C2003808C1009620A7
:1006D0007A08C0007908BF007808BE007708BD001E
:1006E000C401C301C201C1014008C8003F08C700DE
:1006F0003E08C6003D08C500D721031CE22B831429
:100700002708C0002608BF002508BE002408BD0039
:100710002B08C4002A08C3002908C2002808C10009
:1007200096207A08C0007908BF007808BE007708D4
:10073000BD00C401C301C201C1014008C8003F0897
:10074000C7003E08C6003D08C500D721031CDD2BAD
:1007500083142F08C0002E08BF002D08BE002C08EF
:10076000BD003308C4003208C3003108C20030089D
:10077000C10096207A08C0007908BF007808BE0042
:100780007708BD00C401C301C201C1014008C8000F
:100790003F08C7003E08C6003D08C500D721031C1E
:1007A000D62B0130A0070318A10ADC2B0130A002D0
:1007B0000030031C0130A102E12B0130A007031817
:1007C000A10A162C83142708C0002608BF0025089C
:1007D000BE002408BD002B08C4002A08C300290855
:1007E000C2002808C10096207A08C0007908BF001E
:1007F0007808BE007708BD00C401C301C201C10171
:100800004008C8003F08C7003E08C6003D08C500B4
:10081000D721031C102C0130A0070318A10A162CA5
:100820000130A0020030031C0130A1022708AB00F8
:100830002608AA002508A9002408A8002F08B3004C
:100840002E08B2002D08B1002C08B000742A6300F5
:04400E00E42FFF3F5D
:00000001FF
;PIC16F887
;CRC=2864  CREATED="13-Aug-20 20:09"
