:1000000004308A00252C00000C0045362022753A69
:100010007910C33C63366510E5393A0044103D1051
:10002000A53400000C00423084008313000803193B
:1000300027280130F800F701F70B1C28F80B1B28C4
:100040004A30F700F70B22282528800B19280800D2
:10005000490EF039F7000F300805770488000000DA
:1000600008143228081008000808F700080E0F3995
:10007000F8000800831608108810081183128810F1
:100080000F3083160805F038880083120815000029
:100090000814000034207808C90008100000081473
:1000A000000034207808C80008100F3083160805B7
:1000B00088008312490EF700F030F70577084804EE
:1000C000F8007808C800C81B4028461C881046184D
:1000D00088140000081100000810470EC8000F30F7
:1000E000C8054808C900282047080F39C800C900BA
:1000F000282008002830BC000C30BD000130BE00B4
:100100000630BF000810881008110F30831608054C
:1001100088000810881008110F308312C2001320C5
:100120000130BB003B08033C031C9E280330C90080
:1001300028200530C2001320BB0A92280230C900D3
:1001400028200530C2001320BB013B08033C031CE0
:10015000B5283C303B07840083130008C000C6016B
:100160004008C7003A20BB0AA5288A110A125E2C53
:10017000430BBB28BE284030C400BF28C401013057
:100180004202C40744088038C500C6014508C700BC
:100190003A2008004108073A0319D8280B3A0319F6
:1001A000DD28063A0319E528023A0319EB28F0285E
:1001B0000130C200C300B820F528C6010130C700D5
:1001C0003A200230C2001320F5280130C20002306C
:1001D000C300B820F528C6011030C7003A20F52822
:1001E0000130C6004108C7003A2008000B08BB00D8
:1001F0008B13831603178C170C1400000000831256
:100200000313BB1B8B1703170C087F3903194A29EB
:100210000313BB0003170D080313BC0003170F08DB
:100220000313BD003B08C100CA203C0803178D0022
:1002300003133D0803178F0003130B08BE008B1335
:10024000831603178C170C1400000000831203138D
:10025000BE1B8B1703170C0D0E0D7F3903194A298E
:100260000313BB0003170D080313BC0003170F088B
:100270000313BD003B08C100CA203C0803178D00D2
:1002800003133D0803178F008D0A03198F0A031308
:10029000F6280317031308008E30F7003C08F80017
:1002A0003B08F900FA01F808031D60297908F800F5
:1002B000F9010830F702F808031D6029F7016829E1
:1002C0000310F81B6729F90DF80DF7036029F813DF
:1002D00008003B080319D929C3003F080319D9298D
:1002E000C30703187A297F30C302031CD9290319D5
:1002F000D9297E298130C3070318D9294308F7007B
:10030000F801F901FA013C08C700C7173D08C6000B
:100310003E08C5001830C300C401451CA729420887
:10032000FA07031C9929F90A031D9929F80A0319E8
:10033000C4174108F907031CA029F80A0319C417B8
:100340004008BD00BD173D08F8070318C417C40DC9
:10035000F80CF90CFA0CC70CC60CC50C0310C30B37
:100360008C290130F7070318D929F81BBE29C70DBE
:10037000FA0DF90DF80DF7030319D929C71FCF2975
:10038000FA0A031DCF29F90A031DCF29F80A031D14
:10039000CF29F80CF90CFA0CF70A0319D9293C08F3
:1003A000C4004008C406C41FD729F817DD29F81374
:1003B000DD29F701F801F901FA01080080308318FE
:1003C000C006C501C6013C08C4004008C4063B087D
:1003D0000319CE2AC300F7003F080319D72AC30226
:1003E0000319732A031C312A4008C900C9174108A0
:1003F000C8004208C700C6010310C90CC80CC70CCE
:10040000C60CC30BFB29C41F082A4514EB2A451050
:10041000431045163E3084008313002B4512C41B45
:100420001B2A431C262AC90CC80CC70CC60CF70A89
:100430000319E62A262AC91B292A0310C60DC70D4F
:10044000C80DC90DF7030319E62A1B2A4517932A7D
:1004500045133C08C400C41F2F2AC917DF2AC9133B
:10046000DF2A3F08C300F7003B08C3023C08C9006D
:10047000C9173D08C8003E08C700C6010310C90CD3
:10048000C80CC70CC60CC30B3D2AC41F4A2AC5148E
:10049000EB2AC5104310C516423084008313002B8D
:1004A000C512C41B5D2A431C682AC90CC80CC70CA2
:1004B000C60CF70A0319E62A682AC91B6B2A03101F
:1004C000C60DC70DC80DC90DF7030319E62A5D2A2D
:1004D000C517932AC5134008C400C41F712AC91741
:1004E000DF2AC913DF2A4008C900C9174108C8001C
:1004F0004208C700C41F802AC9134515EB2A4511BD
:10050000C60143103E3084008313002BC41BA92A6C
:100510003C08C400431C932AC90CC80CC70CC60C69
:10052000F70A0319E62AC61FA42AC70A031DA42A2C
:10053000C80A031DA42AC90A031DA42AC90CC80C91
:10054000C70CF70A0319E62A451B282AC51B6A2A85
:10055000C82A8030C906C91FB12AEB2A4008C40046
:10056000BE2A3C08C400C908031DBE2AC808031DD2
:10057000BE2AC708031DBE2AF701DF2AC91BC82AE5
:100580000310C60DC70DC80DC90DF70BBE2AE62A0C
:10059000C41FCC2AC917DF2AC913DF2A3F08F70076
:1005A0004008C9004108C8004208C700DF2A3B08CC
:1005B000F7003C08C9003D08C8003E08C7004908CC
:1005C000F8004808F9004708FA001E2BF701F80167
:1005D000F901FA011E2BC601C709C809C909C609D4
:1005E000C60A031DF92AC70A031DF92AC80A0319F6
:1005F000C90A4518072AC518492A45197F2AAE2A6B
:100600000008C707031C0A2BC80A031D0A2BC90AC6
:100610000319431484030008C807031C122BC90ADA
:100620000319431484030008801F803AC907031884
:100630004314451A0E2AC51A502A862A0800400873
:10064000C7004408C706C71F2A2B03110310C01B8D
:1006500003145D2B4008C7004308C8003F08C802C8
:100660000319382BC71F5D2B0308013A83005D2B4C
:100670004408C8004008C8020319442BC71F5D2B5B
:100680000308013A83005D2B4508C8004108C802F1
:100690000319502BC71F5D2B0308013A83005D2B04
:1006A0004608C8004208C80203195C2BC71F5D2B0F
:1006B0000308013A83005D2B031008000B08BC00FF
:1006C0008B13831603178C170C1400000000831281
:1006D0000313BC1B8B170318952B03170C087F39CA
:1006E0000313BC0003170D080313BD0003170F0805
:1006F0000313BE003C08C100CA203D0803178D004B
:1007000003133E0803178F0003130B08BF008B135E
:10071000831603178C170C140000000083120313B8
:10072000BF1B8B17BB0B952BB42B03170C0D0E0D9A
:100730007F390313BC0003170D080313BD00031713
:100740000F080313BE003C08C100CA203D08031770
:100750008D0003133E0803178F008D0A03198F0ABB
:1007600003100313BB0B5E2B8A110A120F2E4208D3
:10077000F80141020318BF2B4108F700CB2BF7010A
:100780000830C300C10DF70D420877020318F700C7
:10079000F80DC30BC22B080020303C1E3030BD00CA
:1007A0003B08F700BB1FDC2BF709F70A7708BB00F3
:1007B0002D30BD00BC173C143B08C1006430C200A2
:1007C000B7237708BB0030307807BE003B08C10074
:1007D0000A30C200B72330307707C00030307807C6
:1007E000BF003D08F70030303E020319FB2BBC145C
:1007F000BC1B3C150F2C3D08BE002030BD00303026
:100800003F020319072C3C14BC1BBC140F2C031D06
:100810003C14031D0F2C3E08BF002030BE003C19C5
:10082000162CBC18192C3C181C2C1F2C3D08C10080
:10083000CA203E08C100CA203F08C100CA204008A3
:10084000C100CA208A110A12142E03081F3983001E
:10085000AB01AA01A901A801AF01AE01AD01AC0134
:100860003230B800BA01B901831603170908C0393C
:10087000890003131F129F12003003178800831290
:1008800087018801890183130330831603138500D0
:100890000030880003170908C0391F388900031386
:1008A0001F129F12FF3003178800831203131F17B4
:1008B0009F1783169F1783121F147A28043003177B
:1008C0008D0000308F000313F6200030F8001F0861
:1008D000C33978049F001030F700F70B6D2C00002F
:1008E0009F149F18712C1E08F90083161E08F8002B
:1008F0007908FA001E088312BB007908BC004C215D
:100900007A08A3007908A2007808A1007708A0005F
:100910002308BE002208BD002108BC002008BB003F
:10092000C201C1012030C0007730BF0069217A08C0
:10093000A3007908A2007808A1007708A00004307D
:10094000F8001F08C33978049F001030F700F70B38
:10095000A72C00009F149F18AB2C1E08F9008316CB
:100960001E08F8007908FA001E088312BB007908F7
:10097000BC004C217A08A7007908A6007808A500D9
:100980007708A4002708BE002608BD002508BC0083
:100990002408BB00C201C1012030C0007730BF0075
:1009A00069217A08A7007908A6007808A5007708C9
:1009B000A4002308BE002208BD002108BC002008B6
:1009C000BB002708C2002608C1002508C000240873
:1009D000BF0069217A08B3007908B2007808B10035
:1009E0007708B0002B08BE002A08BD002908BC000B
:1009F0002808BB002F08C2002E08C1002D08C00027
:100A00002C08BF0069217A08B7007908B600780879
:100A1000B5007708B40083143308BE003208BD0067
:100A20003108BC003008BB003708C2003608C100DE
:100A30003508C0003408BF00DE217A08BE007908FE
:100A4000BD007808BC007708BB003E08C2003D0826
:100A5000C1003C08C0003B08BF00C601C501C4017D
:100A6000C3011F230319E62D83143308BE00320887
:100A7000BD003108BC003008BB003708C200360892
:100A8000C1003508C0003408BF00DE217A08BE006E
:100A90007908BD007808BC007708BB00C201C1011D
:100AA000C001BF013E08C6003D08C5003C08C400A7
:100AB0003B08C3001F23031CB82D83142308BE006A
:100AC0002208BD002108BC002008BB002B08C20082
:100AD0002A08C1002908C0002808BF00DE217A08C2
:100AE000BE007908BD007808BC007708BB00C201D1
:100AF000C101C001BF013E08C6003D08C5003C0859
:100B0000C4003B08C3001F23031CB52D8314270812
:100B1000BE002608BD002508BC002408BB002F0825
:100B2000C2002E08C1002D08C0002C08BF00DE2125
:100B30007A08BE007908BD007808BC007708BB00C1
:100B4000C201C101C001BF013E08C6003D08C50089
:100B50003C08C4003B08C3001F23031CB22D013016
:100B6000B807B42D0130B802B72D0130B807E62D13
:100B700083142308BE002208BD002108BC00200801
:100B8000BB002B08C2002A08C1002908C0002808A1
:100B9000BF00DE217A08BE007908BD007808BC00DD
:100BA0007708BB00C201C101C001BF013E08C600F9
:100BB0003D08C5003C08C4003B08C3001F23031CBC
:100BC000E42D0130B807E62D0130B8022308AB0050
:100BD0002208AA002108A9002008A8002708AF00C1
:100BE0002608AE002508AD002408AC000130C20084
:100BF000C300B820053003178D0000308F000313A9
:100C0000F6200230C200C300B8200E3003178D005A
:100C100000308F00031004300313BB005E2B380834
:100C2000BB001830BC00CC2B0230BB00FA30C20035
:100C30001320BB0B162E123003178D0000308F00CF
:080C40000313F620652C63008C
:04400E00F12CFF3F53
:00000001FF
;PIC16F887
;CRC=E940  CREATED="13-Aug-20 17:54"
