:1000000003308A00692B00000C00CC20202AC52672
:10001000D022D220D42AD2200001C529A0213D100F
:100020002533201020100000363084008313000890
:10003000031928280130F800F701F70B1D28F80BE9
:100040001C284A30F700F70B23282628800B1A2893
:1000500008003D0EF039F7000F30080577048800DE
:10006000000008143328081008000808F700080EDC
:100070000F39F80008008316081088100811831241
:1000800088100F3083160805F03888008312081591
:1000900000000814000035207808BD00081000009A
:1000A0000814000035207808BC0008100F308316B3
:1000B0000805880083123D0EF700F030F705770839
:1000C0003C04F8007808BC00BC1B41283A1C88108E
:1000D0003A18881400000811000008103B0EBC00FC
:1000E0000F30BC053C08BD0029203B080F39BC007F
:1000F000BD00292008002830A9000C30AA000130DA
:10010000AB000630AC000810881008110F308316C1
:10011000080588000810881008110F308312B600F7
:1001200014200130A8002808033C031C9F2803303A
:10013000BD0029200530B6001420A80A93280230FB
:10014000BD0029200530B6001420A8012808033C72
:10015000031CB62829302807840083130008AD004B
:10016000BA012D08BB003B20A80AA6288A110A1252
:10017000982B370BBC28BF284030B800C028B801E6
:1001800001303602B80738088038B900BA0139089A
:10019000BB003B2008003508073A0319D9280B3A61
:1001A0000319DE28063A0319E628023A0319EC2857
:1001B000F1280130B600B700B920F628BA010130A5
:1001C000BB003B200230B6001420F6280130B600F8
:1001D0000230B700B920F628BA011030BB003B202E
:1001E000F6280130BA003508BB003B2008000B0898
:1001F000A8008B13831603178C170C140000000043
:1002000083120313A81B8B1703170C087F390319DC
:100210004B290313A80003170D080313A9000317A4
:100220000F080313AA002808B500CB2029080317DC
:100230008D0003132A0803178F0003130B08AB006C
:100240008B13831603178C170C1400000000831205
:100250000313AB1B8B1703170C0D0E0D7F390319FE
:100260004B290313A80003170D080313A900031754
:100270000F080313AA002808B500CB20290803178C
:100280008D0003132A0803178F008D0A03198F0AA4
:100290000313F7280317031308008E30F70029080B
:1002A000F8002808F900FA01F808031D6129790807
:1002B000F800F9010830F702F808031D6129F70179
:1002C00069290310F81B6829F90DF80DF703612956
:1002D000F8138A110A12BA2B35080319DC29BD005C
:1002E00039080319DC29BD0703187D297F30BD02B9
:1002F000031CDC290319DC2981298130BD0703187F
:10030000DC293D08F700F801F901FA013608C100BF
:10031000C1173708C0003808BF001830BD00BE0143
:100320003F1CAA293C08FA07031C9C29F90A031D53
:100330009C29F80A0319BE173B08F907031CA329D7
:10034000F80A0319BE173A08B700B7173708F807B5
:100350000318BE17BE0DF80CF90CFA0CC10CC00C3A
:10036000BF0C0310BD0B8F290130F7070318DC29E0
:10037000F81BC129C10DFA0DF90DF80DF70303198A
:10038000DC29C11FD229FA0A031DD229F90A031D4B
:10039000D229F80A031DD229F80CF90CFA0CF70A35
:1003A0000319DC293608BE003A08BE06BE1FDA294A
:1003B000F817E029F813E029F701F801F901FA012B
:1003C00008000B08A9008B13831603178C170C1455
:1003D0000000000083120313A91B8B170318182AAF
:1003E00003170C087F390313A90003170D08031323
:1003F000AA0003170F080313AB002908B500CB2090
:100400002A0803178D0003132B0803178F0003130B
:100410000B08AC008B13831603178C170C14000009
:10042000000083120313AC1B8B17A80B182A372A62
:1004300003170C0D0E0D7F390313A90003170D08C8
:100440000313AA0003170F080313AB002908B50014
:10045000CB202A0803178D0003132B0803178F00E6
:100460008D0A03198F0A03100313A80BE129080052
:1004700083183D2A3D3084008313F701F801F90108
:10048000FA01BD01BE01BF01C0013C083B043A04B2
:10049000390403197B2A2030C1000310B50DB60DB5
:1004A000B70DB80DBD0DBE0DBF0DC00D3C0840020F
:1004B000031D642A3B083F02031D642A3A083E02DA
:1004C000031D642A39083D02031C752A3908BD0240
:1004D0003A08031C3A0FBE023B08031C3B0FBF0245
:1004E0003C08031C3C0FC0020314F70DF80DF90D76
:1004F000FA0DC10B4D2A3D088000840A3E08800099
:10050000840A3F088000840A40088000080004082C
:10051000AD002C08AF000319A62A2B08B8002A0842
:10052000B7002908B6002808B500BC01BB0120307F
:10053000BA008230B9006C217A08AB007908AA00B1
:100540007808A9007708A800AF0B8D2A2B08B800FF
:100550002A08B7002908B6002808B5003508B63CB7
:10056000B500FA013608B900B6170310B60CB70C7F
:10057000B80CFA0CF90CF80CF70CB50BB52AB91F2E
:10058000CC2AF709F809F909FA09F70A0319F80A50
:100590000319F90A0319FA0A7A08AB007908AA00C4
:1005A0007808A9007708A800AB1FE32AAD03AD16B1
:1005B000A809A909AA09AB09A80A0319A90A0319D4
:1005C000AA0A0319AB0A3B30B4009A30B300CA3010
:1005D000B200B1010A30AF002C080319AD0A831430
:1005E0002830840083132B08B8002A08B700290894
:1005F000B6002808B5003408BC003308BB00320838
:10060000BA003108B90038227808F708031D1B2BFF
:100610002C0A2F0203191B2B2D0803191D2B0F3930
:100620002F020319152B03184D2BAD1B4D2B2D1B22
:100630001D2B2030492B2030AD05AD1E2B2BAD12CC
:100640002C08031DAD037708AD002D30B500CB207D
:100650002D08F700AD012C082F02031D392B770858
:10066000AD002E30B500CB202D08F7002030AD05B1
:1006700000303030AD1E492BAD122C08031DAD03E8
:100680007708AD002D30B500CB202D08F700AD0167
:100690003030F7077708B500CB2083103408B80056
:1006A0003308B7003208B6003108B500BC01BB0101
:1006B000BA010A30B90038227A08B4007908B300C8
:1006C0007808B2007708B100AF0BEF2A8A110A123E
:1006D000F92B03081F398300A701A601831603170E
:1006E0000908C039890003131F129F120030031735
:1006F00088008312870188018901831301308316E2
:10070000031385000030880003170908C0391F381B
:10071000890003131F129F12FF30031788008312F2
:1007200003131F179F1783169F1783121F147B280D
:10073000043003178D0000308F000313F7200030C2
:10074000F8001F08C33978049F000130B600142058
:100750009F149F18A92B1E08F90083161E08F80085
:1007600079088312A1007808A0002108A9002008B8
:10077000A8004D297A08B8007908B7007808B600B3
:100780007708B5005A30BC00F530BB007930BA00AC
:100790007D30B9006C217A08A5007908A40078089A
:1007A000A3007708A2000130B600B700B9200530D9
:1007B00003178D0000308F000313F7200230B600BE
:1007C000B700B9200D3003178D0000308F000310E3
:1007D00006300313A800E121893084002508AB000E
:1007E0002408AA002308A9002208A8000230AC00AF
:1007F000872A113003178D0000308F00031004305A
:100800000313A800E1210430A800FA30B600142038
:08081000A80B052C9F2B6300CF
:04400E00F12CFF3F53
:00000001FF
;PIC16F887
;CRC=1ADE  CREATED="11-Aug-20 18:54"
