:1000000003308A00732B00000C00D6376C3A613540
:100010006510CD32E434E4370001C539202B3D10A2
:10002000253300000C00C3377239E9326E3A65108F
:10003000CD32E434E4300001C539A0243D1025332D
:1000400000010C003C30840083130008031936289B
:100050000130F800F701F70B2B28F80B2A284A305B
:10006000F700F70B31283428800B28280800430EAE
:10007000F039F7000F3008057704880000000814F5
:100080004128081008000808F700080E0F39F8008A
:1000900008008316081088100811831288100F308A
:1000A00083160805F038880083120815000008142C
:1000B000000043207808C300081000000814000066
:1000C00043207808C20008100F3083160805880006
:1000D0008312430EF700F030F70577084204F8006A
:1000E0007808C200C21B4F28401C88104018881492
:1000F0000000081100000810410EC2000F30C205B8
:100100004208C300372041080F39C200C30037201E
:1001100008002830AF000C30B0000130B1000630CC
:10012000B2000810881008110F30831608058800E7
:100130000810881008110F308312BC0022200130F3
:10014000AE002E08033C031CAD280330C30037204B
:100150000530BC002220AE0AA1280230C30037209F
:100160000530BC002220AE012E08033C031CC4282D
:100170002F302E07840083130008B300C00133081A
:10018000C1004920AE0AB4288A110A12A02B3D0BE7
:10019000CA28CD284030BE00CE28BE0101303C0226
:1001A000BE073E088038BF00C0013F08C10049209B
:1001B00008003B08073A0319E7280B3A0319EC2813
:1001C000063A0319F428023A0319FA28FF280130E5
:1001D000BC00BD00C7200429C0010130C100492076
:1001E0000230BC00222004290130BC000230BD00D6
:1001F000C7200429C0011030C10049200429013062
:10020000C0003B08C100492008000B08AE008B135A
:10021000831603178C170C140000000083120313BD
:10022000AE1B8B1703170C087F39031959290313C9
:10023000AE0003170D080313AF0003170F080313D5
:10024000B0002E08BB00D9202F0803178D00031320
:10025000300803178F0003130B08B1008B138316AC
:1002600003178C170C140000000083120313B11B3A
:100270008B1703170C0D0E0D7F3903195929031322
:10028000AE0003170D080313AF0003170F08031385
:10029000B0002E08BB00D9202F0803178D000313D0
:1002A000300803178F008D0A03198F0A03130529DD
:1002B0000317031308008E30F7002F08F8002E08EC
:1002C000F900FA01F808031D6F297908F800F9010F
:1002D0000830F702F808031D6F29F701772903108A
:1002E000F81B7629F90DF80DF7036F29F8130800AC
:1002F0003B080319E829C3003F080319E829C3078D
:10030000031889297F30C302031CE8290319E8294F
:100310008D298130C3070318E8294308F700F80145
:10032000F901FA013C08C700C7173D08C6003E089E
:10033000C5001830C300C401451CB6294208FA079D
:10034000031CA829F90A031DA829F80A0319C417D0
:100350004108F907031CAF29F80A0319C41740081C
:10036000BD00BD173D08F8070318C417C40DF80CED
:10037000F90CFA0CC70CC60CC50C0310C30B9B2957
:100380000130F7070318E829F81BCD29C70DFA0D2E
:10039000F90DF80DF7030319E829C71FDE29FA0A3A
:1003A000031DDE29F90A031DDE29F80A031DDE29D3
:1003B000F80CF90CFA0CF70A0319E8293C08C400F8
:1003C0004008C406C41FE629F817EC29F813EC29E5
:1003D000F701F801F901FA0108000B08AF008B13CF
:1003E000831603178C170C140000000083120313EC
:1003F000AF1B8B170318242A03170C087F3903132C
:10040000AF0003170D080313B00003170F08031301
:10041000B1002F08BB00D920300803178D0003134B
:10042000310803178F0003130B08B2008B138316D8
:1004300003178C170C140000000083120313B21B67
:100440008B17AE0B242A432A03170C0D0E0D7F3990
:100450000313AF0003170D080313B00003170F08B1
:100460000313B1002F08BB00D920300803178D00FB
:100470000313310803178F008D0A03198F0A031025
:100480000313AE0BED2908008318492A433084007A
:100490008313F701F801F901FA01C301C401C50191
:1004A000C6014208410440043F040319872A203052
:1004B000C7000310BB0DBC0DBD0DBE0DC30DC40D9B
:1004C000C50DC60D42084602031D702A41084502AB
:1004D000031D702A40084402031D702A3F0843028E
:1004E000031C812A3F08C3024008031C400FC402BA
:1004F0004108031C410FC5024208031C420FC602FB
:100500000314F70DF80DF90DFA0DC70B592A43081E
:100510008000840A44088000840A45088000840A18
:100520004608800008000408B3003208B50003192B
:10053000B22A3108BE003008BD002F08BC002E08CA
:10054000BB00C201C1012030C0008230BF00782151
:100550007A08B1007908B0007808AF007708AE00DB
:10056000B50B992A3108BE003008BD002F08BC0029
:100570002E08BB003B08B63CBB00FA013C08BF009C
:10058000BC170310BC0CBD0CBE0CFA0CF90CF80C1B
:10059000F70CBB0BC12ABF1FD82AF709F809F909C4
:1005A000FA09F70A0319F80A0319F90A0319FA0AEA
:1005B0007A08B1007908B0007808AF007708AE007B
:1005C000B11FEF2AB303B316AE09AF09B009B109E1
:1005D000AE0A0319AF0A0319B00A0319B10A3B3076
:1005E000BA009A30B900CA30B800B7010A30B50075
:1005F00032080319B30A83142E30840083133108A0
:10060000BE003008BD002F08BC002E08BB003A0811
:10061000C2003908C1003808C0003708BF004422B2
:100620007808F708031D272B320A35020319272BF8
:1006300033080319292B0F3935020319212B03180D
:10064000592BB31B592B331B292B2030552B203012
:10065000B305B31E372BB3123208031DB30377085B
:10066000B3002D30BB00D9203308F700B3013208A6
:100670003502031D452B7708B3002E30BB00D9206F
:100680003308F7002030B30500303030B31E552B4F
:10069000B3123208031DB3037708B3002D30BB003B
:1006A000D9203308F700B3013030F7077708BB00D3
:1006B000D92083103A08BE003908BD003808BC00B4
:1006C0003708BB00C201C101C0010A30BF0044228B
:1006D0007A08BA007908B9007808B8007708B70036
:1006E000B50BFB2A080003081F398300AD01AC01DC
:1006F000831603170908C039890003131F129F12BC
:100700000030031788008312870188018901831351
:10071000033083160313850003170908C0391F38F7
:10072000890003131F129F12FF30031788008312E2
:1007300003131F179F1783169F1783121F148928EF
:10074000043003178D0000308F00031305210030A3
:10075000F8001F08C33978049F001030F700F70B2A
:10076000AF2B00009F149F18B32B1E08F9008316AF
:100770001E08F80079088312A1007808A000043050
:10078000F8001F08C33978049F001030F700F70BFA
:10079000C72B00009F149F18CB2B1E08F90083164F
:1007A0001E08F80079088312A3007808A200210827
:1007B000AF002008AE005B217A08BE007908BD00BA
:1007C0007808BC007708BB002F30C200F930C100A8
:1007D0001F30C0007730BF0078217A08A700790861
:1007E000A6007808A5007708A4000130BC00BD0071
:1007F000C720053003178D0000308F00031305213B
:100800000230BC00BD00C7200D3003178D00003042
:100810008F00031006300313AE00ED2189308400F1
:100820002708B1002608B0002508AF002408AE0054
:100830000230B20093220230AE00FA30BC00222017
:10084000AE0B1D2C123003178D0000308F000313E8
:1008500005212308AF002208AE005B217A08BE0004
:100860007908BD007808BC007708BB002F30C200B3
:10087000F930C1001F30C0007730BF0078217A08FE
:10088000AB007908AA007808A9007708A800013011
:10089000BC00BD00C720133003178D0000308F004F
:1008A000031305210230BC00BD00C7201C30031714
:1008B0008D0000308F00031006300313AE00ED21D1
:1008C000893084002B08B1002A08B0002908AF0045
:1008D0002808AE000230B20093220230AE00FA3097
:1008E000BC002220AE0B6F2C213003178D0000308E
:0A08F0008F0003130521A72B6300FE
:04400E00F12CFF3F53
:00000001FF
;PIC16F887
;CRC=D393  CREATED="11-Aug-20 22:41"
